:04000000020059326F
:01000B0032C2
:0100130032BA
:01001B0032B2
:0100230032AA
:03002B000202B816
:030033000201C9FE
:01003B003292
:03004300023F0079
:01004B003282
:03005300023F0069
:0900B200E4F508F509C200C201E1
:0300D000020056D5
:030056000200D3D2
:1000D30090E600E054E7F0120664D2E890E668E0A8
:1000E3004408F090E65CE04401F090E65CE04410E4
:1000F300F090E65CE04420F090E65CE04408F0D247
:10010300DDD2AF75CA0C75CBFE75C800D2ADD2CAAD
:1001130090E680E0FF20E11590E680E0440AF0904D
:1001230005DC120AE690E680E0FF54F7F090E671F2
:10013300E4F090E670F075B4FF75B2801206A71074
:10014300000280031206A810010280F090E682E00C
:10015300FF44C0F090E6817401F043870100000082
:1001630000000000E50E702090E682E0FF30E60814
:1001730090E682E0FF20E0D490E682E0FF30E708DB
:1001830090E682E0FF20E1C490E682E0FF30E608DB
:1001930090E682E0FF20E01090E682E0FF30E79CEB
:1001A30090E682E0FF30E194900005120AE690E6C3
:1001B30080E04401F090000F120AE690E680E0FF31
:1001C30054FEF002013FC2DC32C0E0C082C083C0F3
:1001D30007C0D075D000D200AF9174EF5FF5919056
:1001E300E65D7401F0D0D0D007D083D082D0E03266
:1001F300C021C0E0C0F0C082C083C007C006C005F4
:10020300C004C003C002C001C000C0D075D00075D7
:1002130082001209A4AF9174EF5FF59190E65D74CB
:1002230010F0D0D0D000D001D002D003D004D0053C
:10023300D006D007D083D082D0F0D0E0D02132C016
:1002430021C0E0C0F0C082C083C007C006C005C0A3
:1002530004C003C002C001C000C0D075D0007582C5
:10026300011209A4AF9174EF5FF59190E65D7420DC
:10027300F0D0D0D000D001D002D003D004D005D02C
:1002830006D007D083D082D0F0D0E0D02132C0E0B6
:10029300C082C083C007C0D075D000D201AF9174B3
:1002A300EF5FF59190E65D7408F0D0D0D007D0836E
:1002B300D082D0E032C0E0C0D0A287B3920292874E
:1002C300E50845096013150874FFB508021509E52B
:1002D3000845097004D2A0D2A1C2CFD0D0D0E03259
:0300BB00750A00C3
:1002E300AF827401B5130280157402B51302801234
:1002F3007405B51302800F740AB51312800C7E487F
:1003030080107E24800C7E0080087E6C80047582C1
:100313000022EF60047FE080027F1CEFF4FDE5A084
:100323005205EF5E4DF5A075820122AF82BF010237
:100333008003BF021174072FFF90E618F090E61AAE
:10034300EFF0758201227582002290E6F574FFF0CA
:1003530000000090E6047480F000000090E604744E
:1003630082F000000090E6047486F000000090E63E
:1003730004E4F02290E6F574FFF0000000E50A7053
:100383000790E6487406F02290E6487402F02212C1
:10039300034D7EE87F031EBEFF011FEE4F70F7E59E
:1003A300BB30E7FB00000090E6D07428F0000000AB
:1003B30090E6D1E4F0E50A700575BB06800375BBD2
:1003C30004E4F508F509D2A0C2A122AF8290E68029
:1003D300E0FE30E7067D1C7E3D80047DA67E3DEF7A
:1003E30075F010A42416FBE435F0FCEB2DFDEC3E78
:1003F300FC7E80EFF50A703590E612E4F090E61487
:1004030074E0F090E6E27401F08D828C838EF0123A
:100413000B3E90E625F074012DFAE43CFB8E078A2F
:10042300828B838FF0120B3E90E624F02290E6122B
:1004330074D8F090E614E4F090E6D27401F08D8263
:100443008C838EF0120B3EFF90E621F00DBD000170
:100453000C8D828C838EF0120B3EFF90E620740786
:100463005FF08D828C838EF0120B3EC423541F04E5
:1004730090E6404480F022AF827E00EE75F007A440
:10048300FCADF0246BF582ED340BF583E493FBB5FF
:10049300070280080EBE0CE375820022EC246BFC7D
:1004A300ED340BFD74062CF582E43DF583E4939063
:1004B300E601F075AF07759DE4759E008C828D8310
:1004C300A3E49390E67CF08C828D83A3A3E49390C2
:1004D300E67CF090E67C7401F0E4F090E67CF0902A
:1004E300E67CF090E67CF090E67CE4F08C828D83F1
:1004F300A3A3A3E49390E67CF08C828D83A3A3A3B0
:10050300A3E49390E67CF090E67C7401F0E4F09031
:10051300E67CF090E67CF090E67CF090E67CE4F0FC
:100523008C828D83A3A3A3A3A3E49390E67CF09092
:10053300E67C7444F07444F0E4F090E67CF090E6DA
:100543007CF090E67CF090E67CE4F090E67CF09022
:10055300E67CF090E67CF090E67CE4F090E67CF0BC
:1005630090E67CF090E67CF090E67CE4F07F0090EF
:10057300E67CE4F00FBF600040F5758201227582CE
:100583000022AD13AE14AF158D828E838FF0E50A72
:10059300120AB475820122E582FF7006850B82126E
:1005A30003CE758201227582002275820122AF82F9
:1005B300C007120377D007C2A0D2A17508E8750956
:1005C30003BFE0028017BFE1028012BFE202803165
:1005D300BFE302804ABFE402806502066090E68AB8
:1005E300E4F090E68BF090E6A0E0FE20E1F8EF2443
:1005F30020FF90E740E0F5138F821202E37582013A
:100603002290E68AE4F090E68BF090E6A0E0FF20EB
:10061300E1F890E740E0F58212047A7582012290B6
:10062300E68AE4F090E68BF090E6A0E0FF20E1F8A4
:1006330090E740E0FFBF010312039275820122900D
:10064300E68AE4F090E68BF090E6A0E0FF20E1F884
:1006530090E740E0F58212032E7582012275820035
:100663002290E613E4F090E615F090E6C2F090E6EF
:10067300C37480F090E6C0E4F090E6F4F0120377E0
:100683007513017582001202E3751301758201125D
:1006930002E375820112047A75820212032E7582B7
:0506A300000203CE225D
:100B6B00308000030000EA1E8000030000AA180179
:100B7B0000020140CA100101020040CA0C0201022E
:100B8B000040CA080302020040CA040605020040E6
:100B9B00CA020C0B020040CA011817020040CA32ED
:100BAB00302F020040CA147877020040CA0AF0EFD7
:040BBB00020040CA2A
:103D000012010002FFFFFF40B50422600000010223
:103D100000010A06000200000040010009028900BB
:103D200001010080370904000001FF0000000705C1
:103D300086020002000904000101FF0001000705DE
:103D400082010014010904000201FF0001000705BF
:103D50008201000C010904000301FF0001000705B6
:103D600082010004010904000401FF0001000705AD
:103D700082010004020904000501FF00010007059B
:103D800082010004030904000601FF000100070589
:103D900082010004040904000701FF000100070577
:053DA000820100020495
:103DA6000902390002010080370904000001FF0002
:103DB6000000070586024000000904000101FF001B
:103DC600010007058201FF03010904000201FF004B
:093DD60001000705820100020151
:103DE0000403090408034F0044004D002003480069
:103DF00061006E00740065006B00440053004F00CA
:0E3E0000360030003200320042004500000063
:06008800E478FFF6D8FD4C
:1000BE00750D00750E00750FA675103D75111C752A
:0200CE00123DE1
:1006A80090E6B9E0FF24F450030207ADEF240A8373
:1006B800F582EF241083F583E473DAEFAD04ADAD72
:1006C80019AD29415B8F06060707070707070707C4
:1006D8000707120824E58260030207C290E6A0E03B
:1006E800FF4401F00207C21208ADE5826003020769
:1006F800C290E6A0E0FF4401F00207C212091CE51F
:100708008260030207C290E6A0E0FF4401F00207FE
:10071800C2120581E58260030207C21209CF0207EF
:10072800C21205A9AF8290E740EFF090E68AE4F0A4
:1007380090E68B7401F00207C290E6BAE0F58212E7
:1007480005ADE58260030207C290E6A0E0FF440120
:10075800F0806790E6BCE0FF75130C751400751502
:10076800408F82120585E582700A90E6A0E0FF447A
:1007780001F0804690E740E50CF090E68AE4F090BE
:10078800E68B7401F0803390E6BCE0FF90E6BAE0B7
:10079800F50B8F8212059AE582701F90E6A0E0FFA4
:1007A8004401F0801590E6B9E0F5821205B1E582C2
:1007B800700890E6A0E0FF4401F090E6A0E04480D5
:1007C800F022AF828F0653067FEE24F7500302080B
:1007D80020EE240A83F582EE240D83F583E473F971
:1007E800FD1020142018201C07070808080808080E
:1007F8000890E6A022EF30E7067EA27FE680047E1E
:10080800A17FE68E828F832290E6A32290E6A4221F
:1008180090E6A52290E6A6229000002290E6B8E095
:10082800FFBF8002801FBF81028005BF826F8034B6
:1008380090E740E4F090E741F090E68AF090E68B8C
:100848007402F0805CE50E25E0FFE50D420790E7B5
:1008580040EFF090E741E4F090E68AF090E68B7480
:1008680002F0803D90E6BCE0F5821207CAAE82AF86
:1008780083EE4F7003F582228E828F83E0FE30E094
:10088800047F0180027F0090E740EFF090E741E4A9
:10089800F090E68AF090E68B7402F080047582008E
:1008A800227582012290E6B8E0FF6005BF025880F9
:1008B8001B90E6BAE0FFBF0105750E00805290E676
:1008C800BAE0FFBF060280487582002290E6BAE0CF
:1008D800703190E6BCE0F5821207CAAE82AF83E0C1
:1008E800FD5305FE8E828F83EDF090E6BCE0FF306D
:1008F800E70343071053071F90E683EFF074204F78
:10090800F0800D7582002290E6B9E0F5820205B10B
:100918007582012290E6B8E0FF6008BF02028029D4
:1009280002099790E6BAE0FFBF02030209A090E629
:10093800BAE0FFBF0105750E01805D90E6BAE0FFE1
:10094800BF060280537582002290E6BAE0703C90A0
:10095800E6BCE0F5821207CAAE82AF83EE4F7003A1
:10096800F582228E828F83E0FD4305018E828F837C
:10097800EDF090E6BCE0FF30E70343071053071F94
:1009880090E683EFF074204FF0800D75820022907E
:10099800E6B9E0F5820205B175820122AF82D20381
:1009A80010AF02C203EF600E750F1C75103D751174
:1009B800A675123D800C750FA675103D75111C7536
:1009C800123DA20392AF2290E6BBE0FFBF01028076
:1009D80019BF02028029BF03028033BF0603020A3F
:1009E80088BF0703020A9D020AAC7E007F3D8F067E
:1009F80090E6B3EEF07E007F3D90E6B4EEF022AFD5
:100A08001090E6B3EFF0AE0F90E6B4EEF0227EE081
:100A18007D3D7F8090E6BAE0F5137B008B020BEA00
:100A2800B5130280428E008D018F028E828D838FD6
:100A3800F0120B3E28F8E439F9880689058A07740C
:100A4800012EF9E43DFA8F0489828A838CF0120B17
:100A58003EF9B9030280067E007D007F00EE4D60FE
:100A680006C3E5139B50B5EE4D600D8D0790E6B3B8
:100A7800EFF090E6B4EEF02290E6A0E04401F02218
:100A88007E127F3D8F0690E6B3EEF07E127F3D909A
:100A9800E6B4EEF022AF1290E6B3EFF0AE1190E6B6
:0C0AA800B4EEF02290E6A0E04401F02241
:100066007900E94400601B7A00900BBF7800759216
:100076003CE493F2A308B800020592D9F4DAF275CB
:0200860092FFE7
:100AB40020F71130F6138883A88220F509F6A8835D
:0B0AC4007583002280FEF280F5F02216
:103F00000201CC00020B6900020B5E00020291006C
:103F10000201F30002024200020B5B00020ADA0017
:103F2000020ADC00020ADD00020ADE00020AE100E9
:103F3000020B6800020B6A00020ACF00020AD100DD
:103F4000020B6000020ADA00020B5A00020B5C004E
:103F5000020B5D00020B5F00020B6100020B6200AE
:103F6000020B3D00020ADA00020ADA00020ADA0055
:103F7000020ADB00020ADF00020AE200020AE40091
:103F8000020AE000020AE300020AE500020B3C001C
:103F9000020AD200020AD400020AD600020AD8009D
:103FA000020AD300020AD500020AD700020AD90089
:083FB000020AD000020B6700B9
:050ACF00323232323228
:10008E007800E84400600A790075923CE4F309D8E0
:10009E00FC7800E84400600C7900903C00E4F0A38A
:0400AE00D8FCD9FAA7
:100AD40032323232323232323232323232323232F2
:100AE4003232AE82AF8390E600E05418C423541F20
:100AF400FDB40100E433FD60067CB17D00801C90F0
:100B0400E600E05418C423541FFBBB01067A617B42
:100B14000180047AC27B028A048B058C138D141520
:100B24001374FFB513021514E513451470F11EBEBA
:0A0B3400FF011FEE4F70E422323281
:0D005900758121120B63E5826003020056E1
:100B3E0020F71430F6148883A88220F507E6A883E0
:100B4E0075830022E280F7E49322E02232323232C1
:0D0B5E0032323232327582002232323232AF
:00000001FF
