:04000000020059326F
:01000B0032C2
:0100130032BA
:01001B0032B2
:0100230032AA
:03002B000202B816
:030033000201C9FE
:01003B003292
:03004300023F0079
:01004B003282
:03005300023F0069
:0900B200E4F508F509C200C201E1
:0300D000020056D5
:030056000200D3D2
:2000D30090E600E054E7F01206B2D2E890E668E04408F090E65CE04401F090E65CE0441021
:2000F300F090E65CE04420F090E65CE04408F0D2DDD2AF75CA0C75CBFE75C800D2ADD2CAF8
:2001130090E680E0FF20E11590E680E0440AF09005DC120B5D90E680E0FF54F7F090E671EB
:20013300E4F090E670F075B4FF75B2801206F510000280031206F610010280F090E682E028
:20015300FF44C0F090E6817401F043870100000000000000E511702090E682E0FF30E608F7
:2001730090E682E0FF20E0D490E682E0FF30E70890E682E0FF20E1C490E682E0FF30E6083A
:2001930090E682E0FF20E01090E682E0FF30E79C90E682E0FF30E194900005120B5D90E6DA
:2001B30080E04401F090000F120B5D90E680E0FF54FEF002013FC2DC32C0E0C082C083C070
:2001D30007C0D075D000D200AF9174EF5FF59190E65D7401F0D0D0D007D083D082D0E032A0
:2001F300C021C0E0C0F0C082C083C007C006C005C004C003C002C001C000C0D075D00075D0
:2002130082001209F2AF9174EF5FF59190E65D7410F0D0D0D000D001D002D003D004D005DE
:20023300D006D007D083D082D0F0D0E0D02132C021C0E0C0F0C082C083C007C006C005C0FE
:2002530004C003C002C001C000C0D075D0007582011209F2AF9174EF5FF59190E65D7420B8
:20027300F0D0D0D000D001D002D003D004D005D006D007D083D082D0F0D0E0D02132C0E067
:20029300C082C083C007C0D075D000D201AF9174EF5FF59190E65D7408F0D0D0D007D083C6
:2002B300D082D0E032C0E0C0D0A287B392029287E50845096013150874FFB508021509E53E
:1002D3000845097004D2A0D2A1C2CFD0D0D0E03259
:0300BB00750A00C3
:2002E300AF827401B5160280157402B5160280127405B51602800F740AB51612800C7E489C
:2003030080107E24800C7E0080087E6C800475820022EF60047FE080027F1CEFF4FDE5A05B
:200323005205EF5E4DF5A075820122850D16751700905DC0120BD2AE82AF83C3E50B9EE5B2
:200343000C9F400890E640E0547FF02290E640E04480F022AF82BF01028003BF02167407F8
:200363002FFE90E618F090E61AEEF08F0D12032E758201227582002290E6F574FFF0000081
:200383000090E6047480F000000090E6047482F000000090E6047486F000000090E604E4DA
:2003A300F02290E6F574FFF0000000E50A700790E6487406F02290E6487402F02212037BD4
:2003C3007EE87F031EBEFF011FEE4F70F7E5BB30E7FB00000090E6D07428F000000090E699
:2003E300D1E4F0E50A700575BB06800375BB04E4F508F509D2A0C2A122AF8290E680E0FE29
:2004030030E7067D1C7E3D80047DA67E3DEF75F010A42416FBE435F0FCEB2DFDEC3EFC7E0B
:2004230080EFF50A703590E612E4F090E61474E0F090E6E27401F08D828C838EF0120BB551
:2004430090E625F074012DFAE43CFB8E078A828B838FF0120BB590E624F02290E61274D8D7
:20046300F090E614E4F090E6D27401F08D828C838EF0120BB5FF90E621F00DBD00010C8D26
:20048300828C838EF0120BB5FF90E62074075FF08D828C838EF0120BB5C423541F90E6409B
:2004A30004F002032EAF827E00EE75F009A4FCADF0241AF582ED340CF583E493FBB5070240
:2004C30080080EBE0CE375820022EC241AFCED340CFD8C828D83A3E493F50BA3E493F50C1A
:2004E300C005C00412032ED004D00574082CF582E43DF583E49390E601F075AF07759DE4CD
:20050300759E008C828D83A3A3A3E49390E67CF08C828D83A3A3A3A3E49390E67CF090E6EC
:200523007C7401F0E4F090E67CF090E67CF090E67CF090E67CE4F08C828D83A3A3A3A3A34A
:20054300E49390E67CF074062CF582E43DF583E49390E67CF090E67C7401F0E4F090E67C13
:20056300F090E67CF090E67CF090E67CE4F074072CF582E43DF583E49390E67CF090E67CFC
:200583007444F07444F0E4F090E67CF090E67CF090E67CF090E67CE4F090E67CF090E67CF4
:2005A300F090E67CF090E67CE4F090E67CF090E67CF090E67CF090E67CE4F07F0090E67CC3
:2005C300E4F00FBF600040F57582012275820022AD16AE17AF188D828E838FF0E50A120BB4
:2005E3000275820122E582FF7006850E821203FC758201227582002275820122AF82C00795
:200603001203A5D007C2A0D2A17508E8750903BFE0028017BFE1028012BFE2028031BFE329
:2006230002804ABFE40280650206AE90E68AE4F090E68BF090E6A0E0FE20E1F8EF2420FFC7
:2006430090E740E0F5168F821202E37582012290E68AE4F090E68BF090E6A0E0FF20E1F820
:2006630090E740E0F5821204A87582012290E68AE4F090E68BF090E6A0E0FF20E1F890E767
:2006830040E0FFBF01031203C07582012290E68AE4F090E68BF090E6A0E0FF20E1F890E75C
:2006A30040E0F582120357758201227582002290E613E4F090E615F090E6C2F090E6C37454
:2006C30080F090E6C0E4F090E6F4F01203A57516017582001202E37516017582011202E394
:1306E3007582011204A87582021203577582000203FC22CF
:200C1A003080BB8000030000EA1E30758000030000AA18C05D0100020140CA10803E0101DF
:200C3A00020040CA0CE02E0201020040CA08401F0302020040CA04A00F0605020040CA0221
:200C5A00D0070C0B020040CA01E8031817020040CA32F401302F020040CA14C800787702FA
:0C0C7A000040CA0A6400F0EF020040CA0B
:203D000012010002FFFFFF40B50422600000010200010A060002000000400100090289002B
:203D200001010080370904000001FF000000070586020002000904000101FF00010007050C
:203D400082010014010904000201FF00010007058201000C010904000301FF000100070502
:203D600082010004010904000401FF000100070582010004020904000501FF0001000705F5
:203D800082010004030904000601FF000100070582010004040904000701FF0001000705CD
:053DA000820100020495
:203DA6000902390002010080370904000001FF000000070586024000000904000101FF0010
:193DC600010007058201FF03010904000201FF00010007058201000201AF
:203DE0000403090408034F0044004D002003480061006E00740065006B00440053004F0060
:0E3E0000360030003200320042004500000063
:06008800E478FFF6D8FD4C
:1200BE007510007511007512A675133D75141C75153DC7
:2006F60090E6B9E0FF24F450030207FBEF240A83F582EF241083F583E473283DFB52FBFB33
:2007160067FB778FA9DD070707070707070707070707120872E582600302081090E6A0E01B
:20073600FF4401F00208101208FBE582600302081090E6A0E0FF4401F002081012096AE5AE
:2007560082600302081090E6A0E0FF4401F00208101205CFE5826003020810120A1D020833
:20077600101205F7AF8290E740EFF090E68AE4F090E68B7401F002081090E6BAE0F5821291
:2007960005FBE582600302081090E6A0E0FF4401F0806790E6BCE0FF75160F75170075188A
:2007B600408F821205D3E582700A90E6A0E0FF4401F0804690E740E50FF090E68AE4F09018
:2007D600E68B7401F0803390E6BCE0FF90E6BAE0F50E8F821205E8E582701F90E6A0E0FF5B
:2007F6004401F0801590E6B9E0F5821205FFE582700890E6A0E0FF4401F090E6A0E04480BA
:20081600F022AF828F0653067FEE24F7500302086EEE240A83F582EE240D83F583E4734770
:200836004B5E6E626E666E6A08080808080808080890E6A022EF30E7067EA27FE680047E6A
:20085600A17FE68E828F832290E6A32290E6A42290E6A52290E6A6229000002290E6B8E086
:20087600FFBF8002801FBF81028005BF826F803490E740E4F090E741F090E68AF090E68B34
:200896007402F0805CE51125E0FFE510420790E740EFF090E741E4F090E68AF090E68B7441
:2008B60002F0803D90E6BCE0F582120818AE82AF83EE4F7003F582228E828F83E0FE30E0FD
:2008D600047F0180027F0090E740EFF090E741E4F090E68AF090E68B7402F0800475820089
:2008F600227582012290E6B8E0FF6005BF0258801B90E6BAE0FFBF0105751100805290E6DE
:20091600BAE0FFBF060280487582002290E6BAE0703190E6BCE0F582120818AE82AF83E0D2
:20093600FD5305FE8E828F83EDF090E6BCE0FF30E70343071053071F90E683EFF074204F96
:20095600F0800D7582002290E6B9E0F5820205FF7582012290E6B8E0FF6008BF0202802964
:200976000209E590E6BAE0FFBF02030209EE90E6BAE0FFBF0105751101805D90E6BAE0FF5E
:20099600BF060280537582002290E6BAE0703C90E6BCE0F582120818AE82AF83EE4F700305
:2009B600F582228E828F83E0FD4305018E828F83EDF090E6BCE0FF30E70343071053071F43
:2009D60090E683EFF074204FF0800D7582002290E6B9E0F5820205FF75820122AF82D20304
:2009F60010AF02C203EF600E75121C75133D7514A675153D800C7512A675133D75141C7508
:200A1600153DA20392AF2290E6BBE0FFBF01028019BF02028029BF03028033BF0603020A44
:200A3600D6BF0703020AEB020AFA7E007F3D8F0690E6B3EEF07E007F3D90E6B4EEF022AF1B
:200A56001390E6B3EFF0AE1290E6B4EEF0227EE07D3D7F8090E6BAE0F5167B008B020BEA4C
:200A7600B5160280428E008D018F028E828D838FF0120BB528F8E439F9880689058A07745C
:200A9600012EF9E43DFA8F0489828A838CF0120BB5F9B9030280067E007D007F00EE4D60B2
:200AB60006C3E5169B50B5EE4D600D8D0790E6B3EFF090E6B4EEF02290E6A0E04401F02201
:200AD6007E127F3D8F0690E6B3EEF07E127F3D90E6B4EEF022AF1590E6B3EFF0AE1490E69E
:0C0AF600B4EEF02290E6A0E04401F022F3
:200066007900E94400601B7A00900C86780075923CE493F2A308B800020592D9F4DAF2758F
:0200860092FFE7
:1B0B020020F71130F6138883A88220F509F6A8837583002280FEF280F5F022F2
:203F00000201CC00020C1800020C0D00020291000201F30002024200020C0A00020B51004A
:203F2000020B5300020B5400020B5500020B5800020C1700020C1900020B1D00020B1F0057
:203F4000020C0F00020B5100020BD100020C0B00020C0C00020C0E00020C1000020C11007C
:203F6000020BB400020B5100020B5100020B5100020B5200020B5600020B5900020B5B00D6
:203F8000020B5700020B5A00020B5C00020BB300020B2000020B4B00020B4D00020B4F00F2
:183FA000020B2100020B4C00020B4E00020B5000020B1E00020C16007B
:010B1D0032A5
:010B1E0032A4
:010B1F0032A3
:010B200032A2
:010B210032A1
:200B22007A10E4FBFCE58225E0F582E58333F583EB33FBEC33FCEB9516F5F0EC95174006CB
:090B4200FCABF0438201DADD2274
:20008E007800E84400600A790075923CE4F309D8FC7800E84400600C7900903C00E4F0A308
:0400AE00D8FCD9FAA7
:010B4B003277
:010B4C003276
:010B4D003275
:010B4E003274
:010B4F003273
:010B50003272
:010B51003271
:010B52003270
:010B5300326F
:010B5400326E
:010B5500326D
:010B5600326C
:010B5700326B
:010B5800326A
:010B59003269
:010B5A003268
:010B5B003267
:010B5C003266
:200B5D00AE82AF8390E600E05418C423541FFDB40100E433FD60067CB17D00801C90E60012
:200B7D00E05418C423541FFBBB01067A617B0180047AC27B028A048B058C168D171516745E
:160B9D00FFB516021517E516451770F11EBEFF011FEE4F70E422E4
:010BB300320F
:010BB400320E
:0D005900758121120C12E582600302005631
:1C0BB50020F71430F6148883A88220F507E6A88375830022E280F7E49322E0224F
:010BD10032F1
:200BD200C2D5E58330E70DD2D5E4C39582F582E49583F583E51730E70DB2D5E4C39516F5A2
:180BF20016E49517F517120B2230D50BE4C39582F582E49583F583221F
:010C0A0032B7
:010C0B0032B6
:010C0C0032B5
:010C0D0032B4
:010C0E0032B3
:010C0F0032B2
:010C100032B1
:010C110032B0
:040C120075820022C5
:010C160032AB
:010C170032AA
:010C180032A9
:010C190032A8
:00000001FF
