:040000000201B9320E
:01000B0032C2
:0100130032BA
:01001B0032B2
:0100230032AA
:03002B0002041AB2
:0300330002032B9A
:01003B003292
:01004300328A
:01004B003282
:01005300327A
:01005B003272
:01006300326A
:03006B0002032E5F
:03007300020C3547
:03007B0002080D6B
:030083000203F382
:03008B0002035518
:030093000203A4C1
:03009B0002080A4E
:0300A300020C4408
:0300AB00020C45FF
:0300B300020C46F6
:0300BB00020C49EB
:0300C300020C1913
:0300CB00020C36EE
:0300D300020C37E5
:0300DB00020C39DB
:0300E30002080F01
:0300EB00020CC242
:0300F30002080BF5
:0300FB0002080CEC
:0301030002080EE1
:03010B00020810D7
:03011300020811CE
:03011B00020CA52E
:03012300020C4289
:03012B00020C477C
:03013300020C4A71
:03013B00020C4C67
:03014300020C4368
:03014B00020C485B
:03015300020C4B50
:03015B00020C4D46
:03016300020CA4E7
:03016B00020C3A49
:03017300020C3C3F
:03017B00020C3E35
:03018300020C402B
:03018B00020C3B28
:03019300020C3D1E
:03019B00020C3F14
:0301A300020C410A
:0301AB00020C380B
:0301B300020C1823
:09021200E4F508F509C200C2017F
:030230000201B612
:0301B6000202330F
:2002330090E600E054E7F01207C6E500D2E890E668E04408F090E65CE04401F090E65CE019
:200253004410F090E65CE04420F090E65CE04408F0D2DDD2AF75CA0C75CBFE75C800D2ADDE
:20027300D2CA90E680E0FF20E11590E680E0440AF09005DC120C4E90E680E0FF54F7F09053
:20029300E671E4F090E670F075B4FF75B280120809100002800312081210010280F090E69E
:2002B30082E0FF44C0F090E6817401F043870100000000000000E50E702090E682E0FF3025
:2002D300E60890E682E0FF20E0D490E682E0FF30E70890E682E0FF20E1C490E682E0FF30D9
:2002F300E60890E682E0FF20E01090E682E0FF30E79C90E682E0FF30E194900005120C4E0F
:2003130090E680E04401F090000F120C4E90E680E0FF54FEF00202A1C2DC32C0E0C082C086
:2003330083C007C0D075D000D200AF9174EF5FF59190E65D7401F0D0D0D007D083D082D00D
:20035300E032C021C0E0C0F0C082C083C007C006C005C004C003C002C001C000C0D075D0D1
:2003730000758200120B08AF9174EF5FF59190E65D7410F0D0D0D000D001D002D003D004C5
:20039300D005D006D007D083D082D0F0D0E0D02132C021C0E0C0F0C082C083C007C006C08D
:2003B30005C004C003C002C001C000C0D075D000758201120B08AF9174EF5FF59190E65D0E
:2003D3007420F0D0D0D000D001D002D003D004D005D006D007D083D082D0F0D0E0D0213212
:2003F300C0E0C082C083C007C0D075D000D201AF9174EF5FF59190E65D7408F0D0D0D00718
:20041300D083D082D0E032C0E0C0D0A287B392029287E50845096013150874FFB508021577
:1204330009E50845097004D2A0D2A1C2CFD0D0D0E03207
:03021B00750A0061
:20044500AF827401B5130280157402B5130280127405B51302800F740AB51312800C7E4844
:2004650080107E24800C7E0080087E6C800475820022EF60047FE080027F1CEFF4FDE5A0F8
:200485005205EF5E4DF5A075820122AF82BF01028003BF021174072FFF90E618F090E61AB8
:2004A500EFF0758201227582002290E6F574FFF000000090E6047480F000000090E604740B
:2004C50082F000000090E6047486F000000090E604E4F02290E6F574FFF0000000E50A70A4
:2004E5000790E6487406F02290E6487402F0221204AF7EE87F031EBEFF011FEE4F70F7E52F
:20050500BB30E7FB00000090E6D07428F000000090E6D1E4F0E50A700575BB06800375BBCF
:2005250004E4F508F509D2A0C2A122AF8290E680E0FE30E7067D1C7E3D80047DA67E3DEF15
:2005450075F010A42416FBE435F0FCEB2DFDEC3EFC7E80EFF50A703590E612E4F090E61491
:2005650074E0F090E6E27401F08D828C838EF0120CA690E625F074012DFAE43CFB8E078AB4
:20058500828B838FF0120CA690E624F02290E61274D8F090E614E4F090E6D27401F08D82F9
:2005A5008C838EF0120CA6FF90E621F00DBD00010C8D828C838EF0120CA6FF90E620740718
:2005C5005FF08D828C838EF0120CA6C423541F0490E6404480F022AF827E00EE75F007A4D0
:2005E500FCADF024C7F582ED340CF583E493FBB5070280080EBE0CE375820022EC24C7FCF7
:20060500ED340CFD74062CF582E43DF583E49390E601F075AF07759DE4759E008C828D83C5
:20062500A3E49390E67CF08C828D83A3A3E49390E67CF090E67C7401F0E4F090E67CF0905F
:20064500E67CF090E67CF090E67CE4F08C828D83A3A3A3E49390E67CF08C828D83A3A3A334
:20066500A3E49390E67CF090E67C7401F0E4F090E67CF090E67CF090E67CF090E67CE4F0E2
:200685008C828D83A3A3A3A3A3E49390E67CF090E67C7444F07444F0E4F090E67CF090E641
:2006A5007CF090E67CF090E67CE4F090E67CF090E67CF090E67CF090E67CE4F090E67CF0D3
:2006C50090E67CF090E67CF090E67CE4F07F0090E67CE4F00FBF600040F5758201227582D2
:2006E5000022AD13AE14AF158D828E838FF0E50A120C1A75820122E582FF7006850B8212AD
:200705000530758201227582002275820122AF82C0071204D9D007C2A0D2A17508E87509DC
:2007250003BFE0028017BFE1028012BFE2028031BFE302804ABFE40280650207C290E68A2E
:20074500E4F090E68BF090E6A0E0FE20E1F8EF2420FF90E740E0F5138F82120445758201AD
:200765002290E68AE4F090E68BF090E6A0E0FF20E1F890E740E0F5821205DC7582012290F4
:20078500E68AE4F090E68BF090E6A0E0FF20E1F890E740E0FFBF01031204F4758201229024
:2007A500E68AE4F090E68BF090E6A0E0FF20E1F890E740E0F582120490758201227582004C
:2007C5002290E613E4F090E615F090E6C2F090E6C37480F090E6C0E4F090E6F4F01204D982
:2007E5007513017582001204457513017582011204457582011205DC7582021204907582BC
:05080500000205302295
:200CC700308000030000EA1E8000030000AA180100020140CA100101020040CA0C020102D0
:200CE7000040CA080302020040CA040605020040CA020C0B020040CA011817020040CA321C
:140D0700302F020040CA147877020040CA0AF0EF020040CA69
:203D000012010002FFFFFF40B50422600000010200010A060002000000400100090289002B
:203D200001010080370904000001FF000000070586020002000904000101FF00010007050C
:203D400082010014010904000201FF00010007058201000C010904000301FF000100070502
:203D600082010004010904000401FF000100070582010004020904000501FF0001000705F5
:203D800082010004030904000601FF000100070582010004040904000701FF0001000705CD
:053DA000820100020495
:203DA6000902390002010080370904000001FF000000070586024000000904000101FF0010
:193DC600010007058201FF03010904000201FF00010007058201000201AF
:203DE0000403090408034F0044004D002003480061006E00740065006B00440053004F0060
:0E3E0000360030003200320042004500000063
:01080A0032BB
:01080B0032BA
:01080C0032B9
:01080D0032B8
:01080E0032B7
:01080F0032B6
:0108100032B5
:0108110032B4
:0601E800E478FFF6D8FDEB
:12021E00750D00750E00750FA675103D75111C75123D77
:2008120090E6B9E0FF24F45003020917EF240A83F582EF241083F583E4734459176E17174F
:20083200831793ABC5F908080908090908090808080812098EE582600302092C90E6A0E00C
:20085200FF4401F002092C120A17E582600302092C90E6A0E0FF4401F002092C120A85E500
:2008720082600302092C90E6A0E0FF4401F002092C1206E3E582600302092C120B33020992
:200892002C12070BAF8290E740EFF090E68AE4F090E68B7401F002092C90E6BAE0F5821225
:2008B200070FE582600302092C90E6A0E0FF4401F0806790E6BCE0FF75130C751400751546
:2008D200408F821206E7E582700A90E6A0E0FF4401F0804690E740E50CF090E68AE4F090E9
:2008F200E68B7401F0803390E6BCE0FF90E6BAE0F50B8F821206FCE582701F90E6A0E0FF2C
:200912004401F0801590E6B9E0F582120713E582700890E6A0E0FF4401F090E6A0E0448086
:20093200F022AF828F0653067FEE24F7500302098AEE240A83F582EE240D83F583E473631A
:20095200677A8A7E8A828A8609090909090909090990E6A022EF30E7067EA27FE680047E64
:20097200A17FE68E828F832290E6A32290E6A42290E6A52290E6A6229000002290E6B8E069
:20099200FFBF8002801FBF81028005BF826F803490E740E4F090E741F090E68AF090E68B17
:2009B2007402F0805CE50E25E0FFE50D420790E740EFF090E741E4F090E68AF090E68B742A
:2009D20002F0803D90E6BCE0F582120934AE82AF83EE4F7003F582228E828F83E0FE30E0C3
:2009F200047F0180027F0090E740EFF090E741E4F090E68AF090E68B7402F080047582006C
:200A1200227582012290E6B8E0FF6005BF0257801190E6BAE0FFBF0105750E00805175824E
:200A3200002290E6BAE0703A90E6BCE0F582120934AE82AF83E0FD5305FE8E828F83EDF05C
:200A520090E6BCE0FF53070F90E6BCE05480C423541FFE90E6832FF090E683E0FF4420F088
:200A7200800D7582002290E6B9E0F5820207137582012290E6B8E0FF6005BF026C801B9038
:200A9200E6BAE0FFBF0202806990E6BAE0FFBF0105750E01805C7582002290E6BAE0704507
:200AB20090E6BCE0F582120934AE82AF83EE4F7003F582228E828F83E0FD4305018E828FBA
:200AD20083EDF090E6BCE0FF53070F90E6BCE05480C423541FFE90E6832FF090E683E0FFFC
:200AF2004420F0800D7582002290E6B9E0F58202071375820122AF82D20310AF02C203EFB3
:200B1200600E750F1C75103D7511A675123D800C750FA675103D75111C75123DA20392AF3F
:200B32002290E6BBE0FFBF01028019BF02028029BF03028033BF0603020BECBF0703020C9B
:200B520001020C107E007F3D8F0690E6B3EEF07E007F3D90E6B4EEF022AF1090E6B3EFF063
:200B7200AE0F90E6B4EEF0227EE07D3D7F8090E6BAE0F5137B008B020BEAB5130280428E36
:200B9200008D018F028E828D838FF0120CA628F8E439F9880689058A0774012EF9E43DFA27
:200BB2008F0489828A838CF0120CA6F9B9030280067E007D007F00EE4D6006C3E5139B503A
:200BD200B5EE4D600D8D0790E6B3EFF090E6B4EEF02290E6A0E04401F0227E127F3D8F06B2
:200BF20090E6B3EEF07E127F3D90E6B4EEF022AF1290E6B3EFF0AE1190E6B4EEF02290E63E
:060C1200A0E04401F02205
:2001C6007900E94400601B7A00900D1B780075923CE493F2A308B800020592D9F4DAF27598
:0201E60092FF86
:010C180032A9
:010C190032A8
:1B0C1A0020F71130F6138883A88220F509F6A8837583002280FEF280F5F022D9
:010C3500328C
:010C3600328B
:010C3700328A
:010C38003289
:010C39003288
:03004300023F0079
:203F000002032E00020C350002080D000203F300020355000203A40002080A00020C4300B4
:203F2000020C4400020C4500020C4600020C4900020C1900020C3600020C3700020C39003A
:203F400002080F00020C4300020CC20002080B0002080C0002080E000208100002081100AF
:203F6000020CA500020C4300020C4300020C4300020C4200020C4700020C4A00020C4C0044
:203F8000020C4800020C4B00020C4D00020CA400020C3A00020C3C00020C3E00020C400039
:183FA000020C3B00020C3D00020C3F00020C4100020C3800020C18006D
:010C3A003287
:010C3B003286
:2001EE007800E84400600A790075923CE4F309D8FC7800E84400600C7900903C00E4F0A3A7
:04020E00D8FCD9FA45
:010C3C003285
:010C3D003284
:010C3E003283
:010C3F003282
:010C40003281
:010C41003280
:010C4200327F
:010C4300327E
:010C4400327D
:010C4500327C
:010C4600327B
:010C4700327A
:010C48003279
:010C49003278
:010C4A003277
:010C4B003276
:010C4C003275
:010C4D003274
:200C4E00AE82AF8390E600E05418C423541FFDB40100E433FD60067CB17D00801C90E60020
:200C6E00E05418C423541FFBBB01067A617B0180047AC27B028A048B058C138D1415137475
:160C8E00FFB513021514E513451470F11EBEFF011FEE4F70E422FE
:010CA400321D
:010CA500321C
:0D01B900758121120CC3E58260030201B6BE
:1C0CA60020F71430F6148883A88220F507E6A88375830022E280F7E49322E0225D
:010CC20032FF
:040CC3007582002214
:00000001FF
